{
  "_format": "hh-sol-artifact-1",
  "contractName": "BasketFactory",
  "sourceName": "contracts/BasketFactory.sol",
  "abi": [
    {
      "anonymous": false,
      "inputs": [
        {
          "indexed": true,
          "internalType": "address",
          "name": "_address",
          "type": "address"
        },
        {
          "indexed": true,
          "internalType": "address",
          "name": "_creator",
          "type": "address"
        }
      ],
      "name": "NewBasket",
      "type": "event"
    },
    {
      "inputs": [
        {
          "internalType": "uint256",
          "name": "",
          "type": "uint256"
        }
      ],
      "name": "baskets",
      "outputs": [
        {
          "internalType": "address",
          "name": "",
          "type": "address"
        }
      ],
      "stateMutability": "view",
      "type": "function"
    },
    {
      "inputs": [],
      "name": "createBasket",
      "outputs": [],
      "stateMutability": "nonpayable",
      "type": "function"
    }
  ],
  "bytecode": "0x608060405234801561001057600080fd5b50613cc9806100206000396000f3fe60806040523480156200001157600080fd5b50600436106200003a5760003560e01c80635d6c58de146200003f578063a60ed374146200004b575b600080fd5b6200004962000081565b005b6200006960048036038101906200006391906200024a565b620001e5565b60405162000078919062000298565b60405180910390f35b6000604051620000919062000225565b604051809103906000f080158015620000ae573d6000803e3d6000fd5b5090508073ffffffffffffffffffffffffffffffffffffffff166323b872dd303360006040518463ffffffff1660e01b8152600401620000f193929190620002b5565b600060405180830381600087803b1580156200010c57600080fd5b505af115801562000121573d6000803e3d6000fd5b505050506000819080600181540180825580915050600190039060005260206000200160009091909190916101000a81548173ffffffffffffffffffffffffffffffffffffffff021916908373ffffffffffffffffffffffffffffffffffffffff1602179055503373ffffffffffffffffffffffffffffffffffffffff168173ffffffffffffffffffffffffffffffffffffffff167f1ce4b71be64c61f224635250a60130a1cb6d96c18691ae0a5711e50b21e8593060405160405180910390a350565b60008181548110620001f657600080fd5b906000526020600020016000915054906101000a900473ffffffffffffffffffffffffffffffffffffffff1681565b613935806200035f83390190565b600081359050620002448162000344565b92915050565b6000602082840312156200025d57600080fd5b60006200026d8482850162000233565b91505092915050565b6200028181620002f2565b82525050565b620002928162000330565b82525050565b6000602082019050620002af600083018462000276565b92915050565b6000606082019050620002cc600083018662000276565b620002db602083018562000276565b620002ea604083018462000287565b949350505050565b6000620002ff8262000306565b9050919050565b600073ffffffffffffffffffffffffffffffffffffffff82169050919050565b6000819050919050565b60006200033d8262000326565b9050919050565b6200034f8162000326565b81146200035b57600080fd5b5056fe60806040523480156200001157600080fd5b506040518060400160405280600a81526020017f4e4654204261736b6574000000000000000000000000000000000000000000008152506040518060400160405280600481526020017f4e465442000000000000000000000000000000000000000000000000000000008152508160009080519060200190620000969291906200033b565b508060019080519060200190620000af9291906200033b565b505050620000c5336000620000cb60201b60201c565b620005db565b600073ffffffffffffffffffffffffffffffffffffffff168273ffffffffffffffffffffffffffffffffffffffff1614156200013e576040517f08c379a000000000000000000000000000000000000000000000000000000000815260040162000135906200045b565b60405180910390fd5b6200014f81620002c560201b60201c565b1562000192576040517f08c379a0000000000000000000000000000000000000000000000000000000008152600401620001899062000439565b60405180910390fd5b620001a6600083836200033160201b60201c565b6001600360008473ffffffffffffffffffffffffffffffffffffffff1673ffffffffffffffffffffffffffffffffffffffff1681526020019081526020016000206000828254620001f891906200048e565b92505081905550816002600083815260200190815260200160002060006101000a81548173ffffffffffffffffffffffffffffffffffffffff021916908373ffffffffffffffffffffffffffffffffffffffff160217905550808273ffffffffffffffffffffffffffffffffffffffff16600073ffffffffffffffffffffffffffffffffffffffff167fddf252ad1be2c89b69c2b068fc378daa952ba7f163c4a11628f55a4df523b3ef60405160405180910390a4620002c1600083836200033660201b60201c565b5050565b60008073ffffffffffffffffffffffffffffffffffffffff166002600084815260200190815260200160002060009054906101000a900473ffffffffffffffffffffffffffffffffffffffff1673ffffffffffffffffffffffffffffffffffffffff1614159050919050565b505050565b505050565b8280546200034990620004f5565b90600052602060002090601f0160209004810192826200036d5760008555620003b9565b82601f106200038857805160ff1916838001178555620003b9565b82800160010185558215620003b9579182015b82811115620003b85782518255916020019190600101906200039b565b5b509050620003c89190620003cc565b5090565b5b80821115620003e7576000816000905550600101620003cd565b5090565b6000620003fa601c836200047d565b9150620004078262000589565b602082019050919050565b6000620004216020836200047d565b91506200042e82620005b2565b602082019050919050565b600060208201905081810360008301526200045481620003eb565b9050919050565b60006020820190508181036000830152620004768162000412565b9050919050565b600082825260208201905092915050565b60006200049b82620004eb565b9150620004a883620004eb565b9250827fffffffffffffffffffffffffffffffffffffffffffffffffffffffffffffffff03821115620004e057620004df6200052b565b5b828201905092915050565b6000819050919050565b600060028204905060018216806200050e57607f821691505b602082108114156200052557620005246200055a565b5b50919050565b7f4e487b7100000000000000000000000000000000000000000000000000000000600052601160045260246000fd5b7f4e487b7100000000000000000000000000000000000000000000000000000000600052602260045260246000fd5b7f4552433732313a20746f6b656e20616c7265616479206d696e74656400000000600082015250565b7f4552433732313a206d696e7420746f20746865207a65726f2061646472657373600082015250565b61334a80620005eb6000396000f3fe60806040526004361061012e5760003560e01c806370a08231116100ab578063c87b56dd1161006f578063c87b56dd1461041d578063e086e5ec1461045a578063e985e9c514610471578063f23a6e61146104ae578063f3e414f8146104eb578063f4f3b2001461051457610135565b806370a082311461032657806395d89b4114610363578063a22cb4651461038e578063b88d4fde146103b7578063bc197c81146103e057610135565b8063150b7a02116100f2578063150b7a021461023157806323b872dd1461026e57806339ead7201461029757806342842e0e146102c05780636352211e146102e957610135565b806301ffc9a71461013a57806306fdde0314610177578063081812fc146101a2578063095ea7b3146101df578063139e1d531461020857610135565b3661013557005b600080fd5b34801561014657600080fd5b50610161600480360381019061015c9190612317565b61053d565b60405161016e9190612883565b60405180910390f35b34801561018357600080fd5b5061018c61061f565b60405161019991906128b9565b60405180910390f35b3480156101ae57600080fd5b506101c960048036038101906101c49190612369565b6106b1565b6040516101d6919061272d565b60405180910390f35b3480156101eb57600080fd5b5061020660048036038101906102019190612263565b610736565b005b34801561021457600080fd5b5061022f600480360381019061022a9190612263565b61084e565b005b34801561023d57600080fd5b506102586004803603810190610253919061211d565b610970565b604051610265919061289e565b60405180910390f35b34801561027a57600080fd5b50610295600480360381019061029091906120ce565b6109e9565b005b3480156102a357600080fd5b506102be60048036038101906102b9919061229f565b610a49565b005b3480156102cc57600080fd5b506102e760048036038101906102e291906120ce565b610b70565b005b3480156102f557600080fd5b50610310600480360381019061030b9190612369565b610b90565b60405161031d919061272d565b60405180910390f35b34801561033257600080fd5b5061034d60048036038101906103489190611faa565b610c42565b60405161035a9190612a7b565b60405180910390f35b34801561036f57600080fd5b50610378610cfa565b60405161038591906128b9565b60405180910390f35b34801561039a57600080fd5b506103b560048036038101906103b09190612227565b610d8c565b005b3480156103c357600080fd5b506103de60048036038101906103d9919061211d565b610da2565b005b3480156103ec57600080fd5b506104076004803603810190610402919061200f565b610e04565b604051610414919061289e565b60405180910390f35b34801561042957600080fd5b50610444600480360381019061043f9190612369565b610e80565b60405161045191906128b9565b60405180910390f35b34801561046657600080fd5b5061046f610f27565b005b34801561047d57600080fd5b5061049860048036038101906104939190611fd3565b610ffd565b6040516104a59190612883565b60405180910390f35b3480156104ba57600080fd5b506104d560048036038101906104d09190612198565b611091565b6040516104e2919061289e565b60405180910390f35b3480156104f757600080fd5b50610512600480360381019061050d9190612263565b61110d565b005b34801561052057600080fd5b5061053b60048036038101906105369190611faa565b61122f565b005b60007f80ac58cd000000000000000000000000000000000000000000000000000000007bffffffffffffffffffffffffffffffffffffffffffffffffffffffff1916827bffffffffffffffffffffffffffffffffffffffffffffffffffffffff1916148061060857507f5b5e139f000000000000000000000000000000000000000000000000000000007bffffffffffffffffffffffffffffffffffffffffffffffffffffffff1916827bffffffffffffffffffffffffffffffffffffffffffffffffffffffff1916145b806106185750610617826113ec565b5b9050919050565b60606000805461062e90612d2e565b80601f016020809104026020016040519081016040528092919081815260200182805461065a90612d2e565b80156106a75780601f1061067c576101008083540402835291602001916106a7565b820191906000526020600020905b81548152906001019060200180831161068a57829003601f168201915b5050505050905090565b60006106bc82611456565b6106fb576040517f08c379a00000000000000000000000000000000000000000000000000000000081526004016106f2906129db565b60405180910390fd5b6004600083815260200190815260200160002060009054906101000a900473ffffffffffffffffffffffffffffffffffffffff169050919050565b600061074182610b90565b90508073ffffffffffffffffffffffffffffffffffffffff168373ffffffffffffffffffffffffffffffffffffffff1614156107b2576040517f08c379a00000000000000000000000000000000000000000000000000000000081526004016107a990612a1b565b60405180910390fd5b8073ffffffffffffffffffffffffffffffffffffffff166107d16114c2565b73ffffffffffffffffffffffffffffffffffffffff16148061080057506107ff816107fa6114c2565b610ffd565b5b61083f576040517f08c379a00000000000000000000000000000000000000000000000000000000081526004016108369061297b565b60405180910390fd5b61084983836114ca565b505050565b610859336000611583565b610898576040517f08c379a000000000000000000000000000000000000000000000000000000000815260040161088f90612a5b565b60405180910390fd5b8173ffffffffffffffffffffffffffffffffffffffff166323b872dd3033846040518463ffffffff1660e01b81526004016108d593929190612748565b600060405180830381600087803b1580156108ef57600080fd5b505af1158015610903573d6000803e3d6000fd5b505050503373ffffffffffffffffffffffffffffffffffffffff168273ffffffffffffffffffffffffffffffffffffffff167f7d7d06fee8f280e47a7b6a0548f6dffbe5df52f1c1eb012a0d6a41f4a0f350c9836040516109649190612a7b565b60405180910390a35050565b60008373ffffffffffffffffffffffffffffffffffffffff163373ffffffffffffffffffffffffffffffffffffffff167fb6219d009b79f4e4fc9b2f61614df0c5340f2ae5a531b74cc33ddc09df5de8a8856040516109cf9190612a7b565b60405180910390a363150b7a0260e01b9050949350505050565b6109fa6109f46114c2565b82611583565b610a39576040517f08c379a0000000000000000000000000000000000000000000000000000000008152600401610a3090612a3b565b60405180910390fd5b610a44838383611661565b505050565b610a54336000611583565b610a93576040517f08c379a0000000000000000000000000000000000000000000000000000000008152600401610a8a90612a5b565b60405180910390fd5b8273ffffffffffffffffffffffffffffffffffffffff1663f242432a303385856040518563ffffffff1660e01b8152600401610ad294939291906127cb565b600060405180830381600087803b158015610aec57600080fd5b505af1158015610b00573d6000803e3d6000fd5b505050503373ffffffffffffffffffffffffffffffffffffffff168373ffffffffffffffffffffffffffffffffffffffff167ffb5471fdf60f5b676c3aab864f67d0be1f974c75f74cff7675295cfb339f99408484604051610b63929190612a96565b60405180910390a3505050565b610b8b83838360405180602001604052806000815250610da2565b505050565b6000806002600084815260200190815260200160002060009054906101000a900473ffffffffffffffffffffffffffffffffffffffff169050600073ffffffffffffffffffffffffffffffffffffffff168173ffffffffffffffffffffffffffffffffffffffff161415610c39576040517f08c379a0000000000000000000000000000000000000000000000000000000008152600401610c30906129bb565b60405180910390fd5b80915050919050565b60008073ffffffffffffffffffffffffffffffffffffffff168273ffffffffffffffffffffffffffffffffffffffff161415610cb3576040517f08c379a0000000000000000000000000000000000000000000000000000000008152600401610caa9061299b565b60405180910390fd5b600360008373ffffffffffffffffffffffffffffffffffffffff1673ffffffffffffffffffffffffffffffffffffffff168152602001908152602001600020549050919050565b606060018054610d0990612d2e565b80601f0160208091040260200160405190810160405280929190818152602001828054610d3590612d2e565b8015610d825780601f10610d5757610100808354040283529160200191610d82565b820191906000526020600020905b815481529060010190602001808311610d6557829003601f168201915b5050505050905090565b610d9e610d976114c2565b83836118c8565b5050565b610db3610dad6114c2565b83611583565b610df2576040517f08c379a0000000000000000000000000000000000000000000000000000000008152600401610de990612a3b565b60405180910390fd5b610dfe84848484611a35565b50505050565b60008473ffffffffffffffffffffffffffffffffffffffff163373ffffffffffffffffffffffffffffffffffffffff167f0d6928670f3243a6a17ef2c8e072419b0240bb3867270781e7a392cfb48cfd068686604051610e6592919061284c565b60405180910390a363bc197c8160e01b905095945050505050565b6060610e8b82611456565b610eca576040517f08c379a0000000000000000000000000000000000000000000000000000000008152600401610ec1906129fb565b60405180910390fd5b6000610ed4611a91565b90506000815111610ef45760405180602001604052806000815250610f1f565b80610efe84611aa8565b604051602001610f0f929190612709565b6040516020818303038152906040525b915050919050565b610f32336000611583565b610f71576040517f08c379a0000000000000000000000000000000000000000000000000000000008152600401610f6890612a5b565b60405180910390fd5b3373ffffffffffffffffffffffffffffffffffffffff166108fc479081150290604051600060405180830381858888f19350505050158015610fb7573d6000803e3d6000fd5b503373ffffffffffffffffffffffffffffffffffffffff167ff6c62f95390a4a6ee24f778d79a6ce6e34dd01136e291fb3b7ff0fc1919540a260405160405180910390a2565b6000600560008473ffffffffffffffffffffffffffffffffffffffff1673ffffffffffffffffffffffffffffffffffffffff16815260200190815260200160002060008373ffffffffffffffffffffffffffffffffffffffff1673ffffffffffffffffffffffffffffffffffffffff16815260200190815260200160002060009054906101000a900460ff16905092915050565b60008473ffffffffffffffffffffffffffffffffffffffff163373ffffffffffffffffffffffffffffffffffffffff167fbbbe3754d41a9a88a068bdc1983426fa46ac272e729253f77bdb30956c951e4a86866040516110f2929190612a96565b60405180910390a363f23a6e6160e01b905095945050505050565b611118336000611583565b611157576040517f08c379a000000000000000000000000000000000000000000000000000000000815260040161114e90612a5b565b60405180910390fd5b8173ffffffffffffffffffffffffffffffffffffffff166342842e0e3033846040518463ffffffff1660e01b815260040161119493929190612748565b600060405180830381600087803b1580156111ae57600080fd5b505af11580156111c2573d6000803e3d6000fd5b505050503373ffffffffffffffffffffffffffffffffffffffff168273ffffffffffffffffffffffffffffffffffffffff167f7d7d06fee8f280e47a7b6a0548f6dffbe5df52f1c1eb012a0d6a41f4a0f350c9836040516112239190612a7b565b60405180910390a35050565b61123a336000611583565b611279576040517f08c379a000000000000000000000000000000000000000000000000000000000815260040161127090612a5b565b60405180910390fd5b8073ffffffffffffffffffffffffffffffffffffffff1663a9059cbb338373ffffffffffffffffffffffffffffffffffffffff166370a08231306040518263ffffffff1660e01b81526004016112cf919061272d565b60206040518083038186803b1580156112e757600080fd5b505afa1580156112fb573d6000803e3d6000fd5b505050506040513d601f19601f8201168201806040525081019061131f9190612392565b6040518363ffffffff1660e01b815260040161133c929190612823565b602060405180830381600087803b15801561135657600080fd5b505af115801561136a573d6000803e3d6000fd5b505050506040513d601f19601f8201168201806040525081019061138e91906122ee565b503373ffffffffffffffffffffffffffffffffffffffff168173ffffffffffffffffffffffffffffffffffffffff167fa44616ec07d22ce15ebd7a567b7c16dd91a89f056f5e14f8ef7a6aa40a89b9b260405160405180910390a350565b60007f01ffc9a7000000000000000000000000000000000000000000000000000000007bffffffffffffffffffffffffffffffffffffffffffffffffffffffff1916827bffffffffffffffffffffffffffffffffffffffffffffffffffffffff1916149050919050565b60008073ffffffffffffffffffffffffffffffffffffffff166002600084815260200190815260200160002060009054906101000a900473ffffffffffffffffffffffffffffffffffffffff1673ffffffffffffffffffffffffffffffffffffffff1614159050919050565b600033905090565b816004600083815260200190815260200160002060006101000a81548173ffffffffffffffffffffffffffffffffffffffff021916908373ffffffffffffffffffffffffffffffffffffffff160217905550808273ffffffffffffffffffffffffffffffffffffffff1661153d83610b90565b73ffffffffffffffffffffffffffffffffffffffff167f8c5be1e5ebec7d5bd14f71427d1e84f3dd0314c0f7b2291e5b200ac8c7c3b92560405160405180910390a45050565b600061158e82611456565b6115cd576040517f08c379a00000000000000000000000000000000000000000000000000000000081526004016115c49061295b565b60405180910390fd5b60006115d883610b90565b90508073ffffffffffffffffffffffffffffffffffffffff168473ffffffffffffffffffffffffffffffffffffffff16148061164757508373ffffffffffffffffffffffffffffffffffffffff1661162f846106b1565b73ffffffffffffffffffffffffffffffffffffffff16145b8061165857506116578185610ffd565b5b91505092915050565b8273ffffffffffffffffffffffffffffffffffffffff1661168182610b90565b73ffffffffffffffffffffffffffffffffffffffff16146116d7576040517f08c379a00000000000000000000000000000000000000000000000000000000081526004016116ce906128fb565b60405180910390fd5b600073ffffffffffffffffffffffffffffffffffffffff168273ffffffffffffffffffffffffffffffffffffffff161415611747576040517f08c379a000000000000000000000000000000000000000000000000000000000815260040161173e9061291b565b60405180910390fd5b611752838383611c55565b61175d6000826114ca565b6001600360008573ffffffffffffffffffffffffffffffffffffffff1673ffffffffffffffffffffffffffffffffffffffff16815260200190815260200160002060008282546117ad9190612c44565b925050819055506001600360008473ffffffffffffffffffffffffffffffffffffffff1673ffffffffffffffffffffffffffffffffffffffff16815260200190815260200160002060008282546118049190612bbd565b92505081905550816002600083815260200190815260200160002060006101000a81548173ffffffffffffffffffffffffffffffffffffffff021916908373ffffffffffffffffffffffffffffffffffffffff160217905550808273ffffffffffffffffffffffffffffffffffffffff168473ffffffffffffffffffffffffffffffffffffffff167fddf252ad1be2c89b69c2b068fc378daa952ba7f163c4a11628f55a4df523b3ef60405160405180910390a46118c3838383611c5a565b505050565b8173ffffffffffffffffffffffffffffffffffffffff168373ffffffffffffffffffffffffffffffffffffffff161415611937576040517f08c379a000000000000000000000000000000000000000000000000000000000815260040161192e9061293b565b60405180910390fd5b80600560008573ffffffffffffffffffffffffffffffffffffffff1673ffffffffffffffffffffffffffffffffffffffff16815260200190815260200160002060008473ffffffffffffffffffffffffffffffffffffffff1673ffffffffffffffffffffffffffffffffffffffff16815260200190815260200160002060006101000a81548160ff0219169083151502179055508173ffffffffffffffffffffffffffffffffffffffff168373ffffffffffffffffffffffffffffffffffffffff167f17307eab39ab6107e8899845ad3d59bd9653f200f220920489ca2b5937696c3183604051611a289190612883565b60405180910390a3505050565b611a40848484611661565b611a4c84848484611c5f565b611a8b576040517f08c379a0000000000000000000000000000000000000000000000000000000008152600401611a82906128db565b60405180910390fd5b50505050565b606060405180602001604052806000815250905090565b60606000821415611af0576040518060400160405280600181526020017f30000000000000000000000000000000000000000000000000000000000000008152509050611c50565b600082905060005b60008214611b22578080611b0b90612d91565b915050600a82611b1b9190612c13565b9150611af8565b60008167ffffffffffffffff811115611b64577f4e487b7100000000000000000000000000000000000000000000000000000000600052604160045260246000fd5b6040519080825280601f01601f191660200182016040528015611b965781602001600182028036833780820191505090505b5090505b60008514611c4957600182611baf9190612c44565b9150600a85611bbe9190612dda565b6030611bca9190612bbd565b60f81b818381518110611c06577f4e487b7100000000000000000000000000000000000000000000000000000000600052603260045260246000fd5b60200101907effffffffffffffffffffffffffffffffffffffffffffffffffffffffffffff1916908160001a905350600a85611c429190612c13565b9450611b9a565b8093505050505b919050565b505050565b505050565b6000611c808473ffffffffffffffffffffffffffffffffffffffff16611df6565b15611de9578373ffffffffffffffffffffffffffffffffffffffff1663150b7a02611ca96114c2565b8786866040518563ffffffff1660e01b8152600401611ccb949392919061277f565b602060405180830381600087803b158015611ce557600080fd5b505af1925050508015611d1657506040513d601f19601f82011682018060405250810190611d139190612340565b60015b611d99573d8060008114611d46576040519150601f19603f3d011682016040523d82523d6000602084013e611d4b565b606091505b50600081511415611d91576040517f08c379a0000000000000000000000000000000000000000000000000000000008152600401611d88906128db565b60405180910390fd5b805181602001fd5b63150b7a0260e01b7bffffffffffffffffffffffffffffffffffffffffffffffffffffffff1916817bffffffffffffffffffffffffffffffffffffffffffffffffffffffff191614915050611dee565b600190505b949350505050565b6000808273ffffffffffffffffffffffffffffffffffffffff163b119050919050565b6000611e2c611e2784612ae4565b612abf565b90508083825260208201905082856020860282011115611e4b57600080fd5b60005b85811015611e7b5781611e618882611f80565b845260208401935060208301925050600181019050611e4e565b5050509392505050565b6000611e98611e9384612b10565b612abf565b905082815260208101848484011115611eb057600080fd5b611ebb848285612cec565b509392505050565b600081359050611ed2816132b8565b92915050565b600082601f830112611ee957600080fd5b8135611ef9848260208601611e19565b91505092915050565b600081359050611f11816132cf565b92915050565b600081519050611f26816132cf565b92915050565b600081359050611f3b816132e6565b92915050565b600081519050611f50816132e6565b92915050565b600082601f830112611f6757600080fd5b8135611f77848260208601611e85565b91505092915050565b600081359050611f8f816132fd565b92915050565b600081519050611fa4816132fd565b92915050565b600060208284031215611fbc57600080fd5b6000611fca84828501611ec3565b91505092915050565b60008060408385031215611fe657600080fd5b6000611ff485828601611ec3565b925050602061200585828601611ec3565b9150509250929050565b600080600080600060a0868803121561202757600080fd5b600061203588828901611ec3565b955050602061204688828901611ec3565b945050604086013567ffffffffffffffff81111561206357600080fd5b61206f88828901611ed8565b935050606086013567ffffffffffffffff81111561208c57600080fd5b61209888828901611ed8565b925050608086013567ffffffffffffffff8111156120b557600080fd5b6120c188828901611f56565b9150509295509295909350565b6000806000606084860312156120e357600080fd5b60006120f186828701611ec3565b935050602061210286828701611ec3565b925050604061211386828701611f80565b9150509250925092565b6000806000806080858703121561213357600080fd5b600061214187828801611ec3565b945050602061215287828801611ec3565b935050604061216387828801611f80565b925050606085013567ffffffffffffffff81111561218057600080fd5b61218c87828801611f56565b91505092959194509250565b600080600080600060a086880312156121b057600080fd5b60006121be88828901611ec3565b95505060206121cf88828901611ec3565b94505060406121e088828901611f80565b93505060606121f188828901611f80565b925050608086013567ffffffffffffffff81111561220e57600080fd5b61221a88828901611f56565b9150509295509295909350565b6000806040838503121561223a57600080fd5b600061224885828601611ec3565b925050602061225985828601611f02565b9150509250929050565b6000806040838503121561227657600080fd5b600061228485828601611ec3565b925050602061229585828601611f80565b9150509250929050565b6000806000606084860312156122b457600080fd5b60006122c286828701611ec3565b93505060206122d386828701611f80565b92505060406122e486828701611f80565b9150509250925092565b60006020828403121561230057600080fd5b600061230e84828501611f17565b91505092915050565b60006020828403121561232957600080fd5b600061233784828501611f2c565b91505092915050565b60006020828403121561235257600080fd5b600061236084828501611f41565b91505092915050565b60006020828403121561237b57600080fd5b600061238984828501611f80565b91505092915050565b6000602082840312156123a457600080fd5b60006123b284828501611f95565b91505092915050565b60006123c783836126eb565b60208301905092915050565b6123dc81612c78565b82525050565b60006123ed82612b51565b6123f78185612b7f565b935061240283612b41565b8060005b8381101561243357815161241a88826123bb565b975061242583612b72565b925050600181019050612406565b5085935050505092915050565b61244981612c8a565b82525050565b61245881612c96565b82525050565b600061246982612b5c565b6124738185612b90565b9350612483818560208601612cfb565b61248c81612ec7565b840191505092915050565b60006124a282612b67565b6124ac8185612ba1565b93506124bc818560208601612cfb565b6124c581612ec7565b840191505092915050565b60006124db82612b67565b6124e58185612bb2565b93506124f5818560208601612cfb565b80840191505092915050565b600061250e600183612b90565b915061251982612ed8565b602082019050919050565b6000612531603283612ba1565b915061253c82612f01565b604082019050919050565b6000612554602583612ba1565b915061255f82612f50565b604082019050919050565b6000612577602483612ba1565b915061258282612f9f565b604082019050919050565b600061259a601983612ba1565b91506125a582612fee565b602082019050919050565b60006125bd602c83612ba1565b91506125c882613017565b604082019050919050565b60006125e0603883612ba1565b91506125eb82613066565b604082019050919050565b6000612603602a83612ba1565b915061260e826130b5565b604082019050919050565b6000612626602983612ba1565b915061263182613104565b604082019050919050565b6000612649602c83612ba1565b915061265482613153565b604082019050919050565b600061266c602f83612ba1565b9150612677826131a2565b604082019050919050565b600061268f602183612ba1565b915061269a826131f1565b604082019050919050565b60006126b2603183612ba1565b91506126bd82613240565b604082019050919050565b60006126d5601483612ba1565b91506126e08261328f565b602082019050919050565b6126f481612ce2565b82525050565b61270381612ce2565b82525050565b600061271582856124d0565b915061272182846124d0565b91508190509392505050565b600060208201905061274260008301846123d3565b92915050565b600060608201905061275d60008301866123d3565b61276a60208301856123d3565b61277760408301846126fa565b949350505050565b600060808201905061279460008301876123d3565b6127a160208301866123d3565b6127ae60408301856126fa565b81810360608301526127c0818461245e565b905095945050505050565b600060a0820190506127e060008301876123d3565b6127ed60208301866123d3565b6127fa60408301856126fa565b61280760608301846126fa565b818103608083015261281881612501565b905095945050505050565b600060408201905061283860008301856123d3565b61284560208301846126fa565b9392505050565b6000604082019050818103600083015261286681856123e2565b9050818103602083015261287a81846123e2565b90509392505050565b60006020820190506128986000830184612440565b92915050565b60006020820190506128b3600083018461244f565b92915050565b600060208201905081810360008301526128d38184612497565b905092915050565b600060208201905081810360008301526128f481612524565b9050919050565b6000602082019050818103600083015261291481612547565b9050919050565b600060208201905081810360008301526129348161256a565b9050919050565b600060208201905081810360008301526129548161258d565b9050919050565b60006020820190508181036000830152612974816125b0565b9050919050565b60006020820190508181036000830152612994816125d3565b9050919050565b600060208201905081810360008301526129b4816125f6565b9050919050565b600060208201905081810360008301526129d481612619565b9050919050565b600060208201905081810360008301526129f48161263c565b9050919050565b60006020820190508181036000830152612a148161265f565b9050919050565b60006020820190508181036000830152612a3481612682565b9050919050565b60006020820190508181036000830152612a54816126a5565b9050919050565b60006020820190508181036000830152612a74816126c8565b9050919050565b6000602082019050612a9060008301846126fa565b92915050565b6000604082019050612aab60008301856126fa565b612ab860208301846126fa565b9392505050565b6000612ac9612ada565b9050612ad58282612d60565b919050565b6000604051905090565b600067ffffffffffffffff821115612aff57612afe612e98565b5b602082029050602081019050919050565b600067ffffffffffffffff821115612b2b57612b2a612e98565b5b612b3482612ec7565b9050602081019050919050565b6000819050602082019050919050565b600081519050919050565b600081519050919050565b600081519050919050565b6000602082019050919050565b600082825260208201905092915050565b600082825260208201905092915050565b600082825260208201905092915050565b600081905092915050565b6000612bc882612ce2565b9150612bd383612ce2565b9250827fffffffffffffffffffffffffffffffffffffffffffffffffffffffffffffffff03821115612c0857612c07612e0b565b5b828201905092915050565b6000612c1e82612ce2565b9150612c2983612ce2565b925082612c3957612c38612e3a565b5b828204905092915050565b6000612c4f82612ce2565b9150612c5a83612ce2565b925082821015612c6d57612c6c612e0b565b5b828203905092915050565b6000612c8382612cc2565b9050919050565b60008115159050919050565b60007fffffffff0000000000000000000000000000000000000000000000000000000082169050919050565b600073ffffffffffffffffffffffffffffffffffffffff82169050919050565b6000819050919050565b82818337600083830152505050565b60005b83811015612d19578082015181840152602081019050612cfe565b83811115612d28576000848401525b50505050565b60006002820490506001821680612d4657607f821691505b60208210811415612d5a57612d59612e69565b5b50919050565b612d6982612ec7565b810181811067ffffffffffffffff82111715612d8857612d87612e98565b5b80604052505050565b6000612d9c82612ce2565b91507fffffffffffffffffffffffffffffffffffffffffffffffffffffffffffffffff821415612dcf57612dce612e0b565b5b600182019050919050565b6000612de582612ce2565b9150612df083612ce2565b925082612e0057612dff612e3a565b5b828206905092915050565b7f4e487b7100000000000000000000000000000000000000000000000000000000600052601160045260246000fd5b7f4e487b7100000000000000000000000000000000000000000000000000000000600052601260045260246000fd5b7f4e487b7100000000000000000000000000000000000000000000000000000000600052602260045260246000fd5b7f4e487b7100000000000000000000000000000000000000000000000000000000600052604160045260246000fd5b6000601f19601f8301169050919050565b7f3000000000000000000000000000000000000000000000000000000000000000600082015250565b7f4552433732313a207472616e7366657220746f206e6f6e20455243373231526560008201527f63656976657220696d706c656d656e7465720000000000000000000000000000602082015250565b7f4552433732313a207472616e736665722066726f6d20696e636f72726563742060008201527f6f776e6572000000000000000000000000000000000000000000000000000000602082015250565b7f4552433732313a207472616e7366657220746f20746865207a65726f2061646460008201527f7265737300000000000000000000000000000000000000000000000000000000602082015250565b7f4552433732313a20617070726f766520746f2063616c6c657200000000000000600082015250565b7f4552433732313a206f70657261746f7220717565727920666f72206e6f6e657860008201527f697374656e7420746f6b656e0000000000000000000000000000000000000000602082015250565b7f4552433732313a20617070726f76652063616c6c6572206973206e6f74206f7760008201527f6e6572206e6f7220617070726f76656420666f7220616c6c0000000000000000602082015250565b7f4552433732313a2062616c616e636520717565727920666f7220746865207a6560008201527f726f206164647265737300000000000000000000000000000000000000000000602082015250565b7f4552433732313a206f776e657220717565727920666f72206e6f6e657869737460008201527f656e7420746f6b656e0000000000000000000000000000000000000000000000602082015250565b7f4552433732313a20617070726f76656420717565727920666f72206e6f6e657860008201527f697374656e7420746f6b656e0000000000000000000000000000000000000000602082015250565b7f4552433732314d657461646174613a2055524920717565727920666f72206e6f60008201527f6e6578697374656e7420746f6b656e0000000000000000000000000000000000602082015250565b7f4552433732313a20617070726f76616c20746f2063757272656e74206f776e6560008201527f7200000000000000000000000000000000000000000000000000000000000000602082015250565b7f4552433732313a207472616e736665722063616c6c6572206973206e6f74206f60008201527f776e6572206e6f7220617070726f766564000000000000000000000000000000602082015250565b7f77697468647261773a6e6f7420616c6c6f776564000000000000000000000000600082015250565b6132c181612c78565b81146132cc57600080fd5b50565b6132d881612c8a565b81146132e357600080fd5b50565b6132ef81612c96565b81146132fa57600080fd5b50565b61330681612ce2565b811461331157600080fd5b5056fea2646970667358221220bd908b103f2152f85abe755753f1fc239f7e33b9fb71265c7051c0c2c8d31d4e64736f6c63430008040033a2646970667358221220fd5dea1f30a177bfee076d673ee706c52b0a316a5d4bb6e78a211ec0533657a864736f6c63430008040033",
  "linkReferences": {},
  "deployedLinkReferences": {}
}