{
  "_format": "hh-sol-artifact-1",
  "contractName": "Settings",
  "sourceName": "contracts/Settings.sol",
  "abi": [
    {
      "inputs": [],
      "stateMutability": "nonpayable",
      "type": "constructor"
    },
    {
      "anonymous": false,
      "inputs": [
        {
          "indexed": true,
          "internalType": "address",
          "name": "previousOwner",
          "type": "address"
        },
        {
          "indexed": true,
          "internalType": "address",
          "name": "newOwner",
          "type": "address"
        }
      ],
      "name": "OwnershipTransferred",
      "type": "event"
    },
    {
      "anonymous": false,
      "inputs": [
        {
          "indexed": false,
          "internalType": "uint256",
          "name": "_old",
          "type": "uint256"
        },
        {
          "indexed": false,
          "internalType": "uint256",
          "name": "_new",
          "type": "uint256"
        }
      ],
      "name": "UpdateCuratorFee",
      "type": "event"
    },
    {
      "anonymous": false,
      "inputs": [
        {
          "indexed": false,
          "internalType": "address",
          "name": "_old",
          "type": "address"
        },
        {
          "indexed": false,
          "internalType": "address",
          "name": "_new",
          "type": "address"
        }
      ],
      "name": "UpdateFeeReceiver",
      "type": "event"
    },
    {
      "anonymous": false,
      "inputs": [
        {
          "indexed": false,
          "internalType": "uint256",
          "name": "_old",
          "type": "uint256"
        },
        {
          "indexed": false,
          "internalType": "uint256",
          "name": "_new",
          "type": "uint256"
        }
      ],
      "name": "UpdateGovernanceFee",
      "type": "event"
    },
    {
      "anonymous": false,
      "inputs": [
        {
          "indexed": false,
          "internalType": "uint256",
          "name": "_old",
          "type": "uint256"
        },
        {
          "indexed": false,
          "internalType": "uint256",
          "name": "_new",
          "type": "uint256"
        }
      ],
      "name": "UpdateMaxAuctionLength",
      "type": "event"
    },
    {
      "anonymous": false,
      "inputs": [
        {
          "indexed": false,
          "internalType": "uint256",
          "name": "_old",
          "type": "uint256"
        },
        {
          "indexed": false,
          "internalType": "uint256",
          "name": "_new",
          "type": "uint256"
        }
      ],
      "name": "UpdateMaxReserveFactor",
      "type": "event"
    },
    {
      "anonymous": false,
      "inputs": [
        {
          "indexed": false,
          "internalType": "uint256",
          "name": "_old",
          "type": "uint256"
        },
        {
          "indexed": false,
          "internalType": "uint256",
          "name": "_new",
          "type": "uint256"
        }
      ],
      "name": "UpdateMinAuctionLength",
      "type": "event"
    },
    {
      "anonymous": false,
      "inputs": [
        {
          "indexed": false,
          "internalType": "uint256",
          "name": "_old",
          "type": "uint256"
        },
        {
          "indexed": false,
          "internalType": "uint256",
          "name": "_new",
          "type": "uint256"
        }
      ],
      "name": "UpdateMinBidIncrease",
      "type": "event"
    },
    {
      "anonymous": false,
      "inputs": [
        {
          "indexed": false,
          "internalType": "uint256",
          "name": "_old",
          "type": "uint256"
        },
        {
          "indexed": false,
          "internalType": "uint256",
          "name": "_new",
          "type": "uint256"
        }
      ],
      "name": "UpdateMinReserveFactor",
      "type": "event"
    },
    {
      "anonymous": false,
      "inputs": [
        {
          "indexed": false,
          "internalType": "uint256",
          "name": "_old",
          "type": "uint256"
        },
        {
          "indexed": false,
          "internalType": "uint256",
          "name": "_new",
          "type": "uint256"
        }
      ],
      "name": "UpdateMinVotePercentage",
      "type": "event"
    },
    {
      "inputs": [],
      "name": "feeReceiver",
      "outputs": [
        {
          "internalType": "address payable",
          "name": "",
          "type": "address"
        }
      ],
      "stateMutability": "view",
      "type": "function"
    },
    {
      "inputs": [],
      "name": "governanceFee",
      "outputs": [
        {
          "internalType": "uint256",
          "name": "",
          "type": "uint256"
        }
      ],
      "stateMutability": "view",
      "type": "function"
    },
    {
      "inputs": [],
      "name": "maxAuctionLength",
      "outputs": [
        {
          "internalType": "uint256",
          "name": "",
          "type": "uint256"
        }
      ],
      "stateMutability": "view",
      "type": "function"
    },
    {
      "inputs": [],
      "name": "maxCuratorFee",
      "outputs": [
        {
          "internalType": "uint256",
          "name": "",
          "type": "uint256"
        }
      ],
      "stateMutability": "view",
      "type": "function"
    },
    {
      "inputs": [],
      "name": "maxGovFee",
      "outputs": [
        {
          "internalType": "uint256",
          "name": "",
          "type": "uint256"
        }
      ],
      "stateMutability": "view",
      "type": "function"
    },
    {
      "inputs": [],
      "name": "maxMaxAuctionLength",
      "outputs": [
        {
          "internalType": "uint256",
          "name": "",
          "type": "uint256"
        }
      ],
      "stateMutability": "view",
      "type": "function"
    },
    {
      "inputs": [],
      "name": "maxMinBidIncrease",
      "outputs": [
        {
          "internalType": "uint256",
          "name": "",
          "type": "uint256"
        }
      ],
      "stateMutability": "view",
      "type": "function"
    },
    {
      "inputs": [],
      "name": "maxReserveFactor",
      "outputs": [
        {
          "internalType": "uint256",
          "name": "",
          "type": "uint256"
        }
      ],
      "stateMutability": "view",
      "type": "function"
    },
    {
      "inputs": [],
      "name": "minAuctionLength",
      "outputs": [
        {
          "internalType": "uint256",
          "name": "",
          "type": "uint256"
        }
      ],
      "stateMutability": "view",
      "type": "function"
    },
    {
      "inputs": [],
      "name": "minBidIncrease",
      "outputs": [
        {
          "internalType": "uint256",
          "name": "",
          "type": "uint256"
        }
      ],
      "stateMutability": "view",
      "type": "function"
    },
    {
      "inputs": [],
      "name": "minMinAuctionLength",
      "outputs": [
        {
          "internalType": "uint256",
          "name": "",
          "type": "uint256"
        }
      ],
      "stateMutability": "view",
      "type": "function"
    },
    {
      "inputs": [],
      "name": "minMinBidIncrease",
      "outputs": [
        {
          "internalType": "uint256",
          "name": "",
          "type": "uint256"
        }
      ],
      "stateMutability": "view",
      "type": "function"
    },
    {
      "inputs": [],
      "name": "minReserveFactor",
      "outputs": [
        {
          "internalType": "uint256",
          "name": "",
          "type": "uint256"
        }
      ],
      "stateMutability": "view",
      "type": "function"
    },
    {
      "inputs": [],
      "name": "minVotePercentage",
      "outputs": [
        {
          "internalType": "uint256",
          "name": "",
          "type": "uint256"
        }
      ],
      "stateMutability": "view",
      "type": "function"
    },
    {
      "inputs": [],
      "name": "owner",
      "outputs": [
        {
          "internalType": "address",
          "name": "",
          "type": "address"
        }
      ],
      "stateMutability": "view",
      "type": "function"
    },
    {
      "inputs": [],
      "name": "renounceOwnership",
      "outputs": [],
      "stateMutability": "nonpayable",
      "type": "function"
    },
    {
      "inputs": [
        {
          "internalType": "address payable",
          "name": "_receiver",
          "type": "address"
        }
      ],
      "name": "setFeeReceiver",
      "outputs": [],
      "stateMutability": "nonpayable",
      "type": "function"
    },
    {
      "inputs": [
        {
          "internalType": "uint256",
          "name": "_fee",
          "type": "uint256"
        }
      ],
      "name": "setGovernanceFee",
      "outputs": [],
      "stateMutability": "nonpayable",
      "type": "function"
    },
    {
      "inputs": [
        {
          "internalType": "uint256",
          "name": "_length",
          "type": "uint256"
        }
      ],
      "name": "setMaxAuctionLength",
      "outputs": [],
      "stateMutability": "nonpayable",
      "type": "function"
    },
    {
      "inputs": [
        {
          "internalType": "uint256",
          "name": "_fee",
          "type": "uint256"
        }
      ],
      "name": "setMaxCuratorFee",
      "outputs": [],
      "stateMutability": "nonpayable",
      "type": "function"
    },
    {
      "inputs": [
        {
          "internalType": "uint256",
          "name": "_factor",
          "type": "uint256"
        }
      ],
      "name": "setMaxReserveFactor",
      "outputs": [],
      "stateMutability": "nonpayable",
      "type": "function"
    },
    {
      "inputs": [
        {
          "internalType": "uint256",
          "name": "_length",
          "type": "uint256"
        }
      ],
      "name": "setMinAuctionLength",
      "outputs": [],
      "stateMutability": "nonpayable",
      "type": "function"
    },
    {
      "inputs": [
        {
          "internalType": "uint256",
          "name": "_min",
          "type": "uint256"
        }
      ],
      "name": "setMinBidIncrease",
      "outputs": [],
      "stateMutability": "nonpayable",
      "type": "function"
    },
    {
      "inputs": [
        {
          "internalType": "uint256",
          "name": "_factor",
          "type": "uint256"
        }
      ],
      "name": "setMinReserveFactor",
      "outputs": [],
      "stateMutability": "nonpayable",
      "type": "function"
    },
    {
      "inputs": [
        {
          "internalType": "uint256",
          "name": "_min",
          "type": "uint256"
        }
      ],
      "name": "setMinVotePercentage",
      "outputs": [],
      "stateMutability": "nonpayable",
      "type": "function"
    },
    {
      "inputs": [
        {
          "internalType": "address",
          "name": "newOwner",
          "type": "address"
        }
      ],
      "name": "transferOwnership",
      "outputs": [],
      "stateMutability": "nonpayable",
      "type": "function"
    }
  ],
  "bytecode": "0x608060405234801561001057600080fd5b50600061002161014260201b60201c565b9050806000806101000a81548173ffffffffffffffffffffffffffffffffffffffff021916908373ffffffffffffffffffffffffffffffffffffffff1602179055508073ffffffffffffffffffffffffffffffffffffffff16600073ffffffffffffffffffffffffffffffffffffffff167f8be0079c531659141344cd1fd0a4f28419497f9722a3daafe3b4186f6b6457e060405160405180910390a350621275006001819055506203f48060028190555033600960006101000a81548173ffffffffffffffffffffffffffffffffffffffff021916908373ffffffffffffffffffffffffffffffffffffffff16021790555060c86008819055506113886007819055506032600581905550606460048190555060fa60068190555061014a565b600033905090565b611a89806101596000396000f3fe608060405234801561001057600080fd5b506004361061018e5760003560e01c80637c513c0f116100de578063a0b335e311610097578063d213b90011610071578063d213b90014610403578063efdcd97414610421578063f2fde38b1461043d578063fcd81e32146104595761018e565b8063a0b335e3146103ab578063affdafd8146103c9578063b3f00674146103e55761018e565b80637c513c0f146102fb578063846a4dd21461031957806384810309146103375780638a364bc1146103535780638da5cb5b146103715780639665eb0f1461038f5761018e565b806332a693301161014b57806357c74c6c1161012557806357c74c6c1461029d5780636109f5b5146102b95780636fc83db3146102d5578063715018a6146102f15761018e565b806332a6933014610245578063339f87ed146102615780635410bfc91461027f5761018e565b806309990a96146101935780630e519ef9146101b15780630ea90a12146101cf57806318fee3bf146101ed5780631a58364c1461020957806332977c7314610227575b600080fd5b61019b610477565b6040516101a891906116fa565b60405180910390f35b6101b961047d565b6040516101c691906116fa565b60405180910390f35b6101d7610483565b6040516101e491906116fa565b60405180910390f35b610207600480360381019061020291906112cf565b610489565b005b61021161058e565b60405161021e91906116fa565b60405180910390f35b61022f610595565b60405161023c91906116fa565b60405180910390f35b61025f600480360381019061025a91906112cf565b61059b565b005b6102696106a0565b60405161027691906116fa565b60405180910390f35b6102876106a5565b60405161029491906116fa565b60405180910390f35b6102b760048036038101906102b291906112cf565b6106ab565b005b6102d360048036038101906102ce91906112cf565b6107b1565b005b6102ef60048036038101906102ea91906112cf565b610872565b005b6102f96109bd565b005b610303610af7565b60405161031091906116fa565b60405180910390f35b610321610afd565b60405161032e91906116fa565b60405180910390f35b610351600480360381019061034c91906112cf565b610b02565b005b61035b610c07565b60405161036891906116fa565b60405180910390f35b610379610c0d565b60405161038691906114fb565b60405180910390f35b6103a960048036038101906103a491906112cf565b610c36565b005b6103b3610d7f565b6040516103c091906116fa565b60405180910390f35b6103e360048036038101906103de91906112cf565b610d85565b005b6103ed610ed0565b6040516103fa9190611516565b60405180910390f35b61040b610ef6565b60405161041891906116fa565b60405180910390f35b61043b600480360381019061043691906112a6565b610efd565b005b6104576004803603810190610452919061127d565b611088565b005b610461611231565b60405161046e91906116fa565b60405180910390f35b60085481565b60015481565b60035481565b610491611236565b73ffffffffffffffffffffffffffffffffffffffff166104af610c0d565b73ffffffffffffffffffffffffffffffffffffffff1614610505576040517f08c379a00000000000000000000000000000000000000000000000000000000081526004016104fc9061163a565b60405180910390fd5b6007548110610549576040517f08c379a00000000000000000000000000000000000000000000000000000000081526004016105409061157a565b60405180910390fd5b7fa93910a1e82dcd753b639a2ff1def7bf84d6bb1bf6fe79212d0d9ae72afc6cfa6008548260405161057c929190611715565b60405180910390a18060088190555050565b6249d40081565b60065481565b6105a3611236565b73ffffffffffffffffffffffffffffffffffffffff166105c1610c0d565b73ffffffffffffffffffffffffffffffffffffffff1614610617576040517f08c379a000000000000000000000000000000000000000000000000000000000815260040161060e9061163a565b60405180910390fd5b606481111561065b576040517f08c379a00000000000000000000000000000000000000000000000000000000081526004016106529061169a565b60405180910390fd5b7f11b96af861c45de0c17127383516c92fc2a9d50eff86ea831b69e76a3fa87e2f6003548260405161068e929190611715565b60405180910390a18060038190555050565b600a81565b60075481565b6106b3611236565b73ffffffffffffffffffffffffffffffffffffffff166106d1610c0d565b73ffffffffffffffffffffffffffffffffffffffff1614610727576040517f08c379a000000000000000000000000000000000000000000000000000000000815260040161071e9061163a565b60405180910390fd5b6103e881111561076c576040517f08c379a0000000000000000000000000000000000000000000000000000000008152600401610763906116da565b60405180910390fd5b7ff8298d9709c2527c6ec1e2c605c5a163b44b0520bdd80335d5faba17e3f38fb86006548260405161079f929190611715565b60405180910390a18060068190555050565b6107b9611236565b73ffffffffffffffffffffffffffffffffffffffff166107d7610c0d565b73ffffffffffffffffffffffffffffffffffffffff161461082d576040517f08c379a00000000000000000000000000000000000000000000000000000000081526004016108249061163a565b60405180910390fd5b7f283f7179cc13a8f90c3123b415b98ca8a0ca9619eed3c981db52809ab62700f960035482604051610860929190611715565b60405180910390a18060048190555050565b61087a611236565b73ffffffffffffffffffffffffffffffffffffffff16610898610c0d565b73ffffffffffffffffffffffffffffffffffffffff16146108ee576040517f08c379a00000000000000000000000000000000000000000000000000000000081526004016108e59061163a565b60405180910390fd5b62015180811015610934576040517f08c379a000000000000000000000000000000000000000000000000000000000815260040161092b9061165a565b60405180910390fd5b6001548110610978576040517f08c379a000000000000000000000000000000000000000000000000000000000815260040161096f9061167a565b60405180910390fd5b7f055017e5b2f20973817c668e2f744e7c1b68a6f20332f25bb7b9bbb2f0c7eca7600254826040516109ab929190611715565b60405180910390a18060028190555050565b6109c5611236565b73ffffffffffffffffffffffffffffffffffffffff166109e3610c0d565b73ffffffffffffffffffffffffffffffffffffffff1614610a39576040517f08c379a0000000000000000000000000000000000000000000000000000000008152600401610a309061163a565b60405180910390fd5b600073ffffffffffffffffffffffffffffffffffffffff1660008054906101000a900473ffffffffffffffffffffffffffffffffffffffff1673ffffffffffffffffffffffffffffffffffffffff167f8be0079c531659141344cd1fd0a4f28419497f9722a3daafe3b4186f6b6457e060405160405180910390a360008060006101000a81548173ffffffffffffffffffffffffffffffffffffffff021916908373ffffffffffffffffffffffffffffffffffffffff160217905550565b60055481565b606481565b610b0a611236565b73ffffffffffffffffffffffffffffffffffffffff16610b28610c0d565b73ffffffffffffffffffffffffffffffffffffffff1614610b7e576040517f08c379a0000000000000000000000000000000000000000000000000000000008152600401610b759061163a565b60405180910390fd5b6008548111610bc2576040517f08c379a0000000000000000000000000000000000000000000000000000000008152600401610bb99061161a565b60405180910390fd5b7febec08ac4f5f91f0463f6e09a9b1729f1cbea09d240d8a1807ed6b9cd171ef1960075482604051610bf5929190611715565b60405180910390a18060078190555050565b60045481565b60008060009054906101000a900473ffffffffffffffffffffffffffffffffffffffff16905090565b610c3e611236565b73ffffffffffffffffffffffffffffffffffffffff16610c5c610c0d565b73ffffffffffffffffffffffffffffffffffffffff1614610cb2576040517f08c379a0000000000000000000000000000000000000000000000000000000008152600401610ca99061163a565b60405180910390fd5b6064811115610cf6576040517f08c379a0000000000000000000000000000000000000000000000000000000008152600401610ced906115da565b60405180910390fd5b600a811015610d3a576040517f08c379a0000000000000000000000000000000000000000000000000000000008152600401610d31906115ba565b60405180910390fd5b7f3995c181714327dbf0232c3b20873e87ca6978b6418eec0f97a1447c5a4c43fc60055482604051610d6d929190611715565b60405180910390a18060058190555050565b60025481565b610d8d611236565b73ffffffffffffffffffffffffffffffffffffffff16610dab610c0d565b73ffffffffffffffffffffffffffffffffffffffff1614610e01576040517f08c379a0000000000000000000000000000000000000000000000000000000008152600401610df89061163a565b60405180910390fd5b6249d400811115610e47576040517f08c379a0000000000000000000000000000000000000000000000000000000008152600401610e3e9061155a565b60405180910390fd5b6002548111610e8b576040517f08c379a0000000000000000000000000000000000000000000000000000000008152600401610e82906115fa565b60405180910390fd5b7f06684837277f012a4c3a13c8ec0e53d85b843e328a811a8f5f25f5e1456d9f5960015482604051610ebe929190611715565b60405180910390a18060018190555050565b600960009054906101000a900473ffffffffffffffffffffffffffffffffffffffff1681565b6201518081565b610f05611236565b73ffffffffffffffffffffffffffffffffffffffff16610f23610c0d565b73ffffffffffffffffffffffffffffffffffffffff1614610f79576040517f08c379a0000000000000000000000000000000000000000000000000000000008152600401610f709061163a565b60405180910390fd5b600073ffffffffffffffffffffffffffffffffffffffff168173ffffffffffffffffffffffffffffffffffffffff161415610fe9576040517f08c379a0000000000000000000000000000000000000000000000000000000008152600401610fe0906116ba565b60405180910390fd5b7f2861448678f0be67f11bfb5481b3e3b4cfeb3acc6126ad60a05f95bfc6530666600960009054906101000a900473ffffffffffffffffffffffffffffffffffffffff168260405161103c929190611531565b60405180910390a180600960006101000a81548173ffffffffffffffffffffffffffffffffffffffff021916908373ffffffffffffffffffffffffffffffffffffffff16021790555050565b611090611236565b73ffffffffffffffffffffffffffffffffffffffff166110ae610c0d565b73ffffffffffffffffffffffffffffffffffffffff1614611104576040517f08c379a00000000000000000000000000000000000000000000000000000000081526004016110fb9061163a565b60405180910390fd5b600073ffffffffffffffffffffffffffffffffffffffff168173ffffffffffffffffffffffffffffffffffffffff161415611174576040517f08c379a000000000000000000000000000000000000000000000000000000000815260040161116b9061159a565b60405180910390fd5b8073ffffffffffffffffffffffffffffffffffffffff1660008054906101000a900473ffffffffffffffffffffffffffffffffffffffff1673ffffffffffffffffffffffffffffffffffffffff167f8be0079c531659141344cd1fd0a4f28419497f9722a3daafe3b4186f6b6457e060405160405180910390a3806000806101000a81548173ffffffffffffffffffffffffffffffffffffffff021916908373ffffffffffffffffffffffffffffffffffffffff16021790555050565b606481565b600033905090565b60008135905061124d81611a0e565b92915050565b60008135905061126281611a25565b92915050565b60008135905061127781611a3c565b92915050565b60006020828403121561128f57600080fd5b600061129d8482850161123e565b91505092915050565b6000602082840312156112b857600080fd5b60006112c684828501611253565b91505092915050565b6000602082840312156112e157600080fd5b60006112ef84828501611268565b91505092915050565b6113018161179d565b82525050565b61131081611761565b82525050565b61131f8161174f565b82525050565b6000611332601b8361173e565b915061133d826117d3565b602082019050919050565b6000611355601b8361173e565b9150611360826117fc565b602082019050919050565b600061137860268361173e565b915061138382611825565b604082019050919050565b600061139b60188361173e565b91506113a682611874565b602082019050919050565b60006113be60198361173e565b91506113c98261189d565b602082019050919050565b60006113e1601a8361173e565b91506113ec826118c6565b602082019050919050565b6000611404601a8361173e565b915061140f826118ef565b602082019050919050565b600061142760208361173e565b915061143282611918565b602082019050919050565b600061144a601a8361173e565b915061145582611941565b602082019050919050565b600061146d601b8361173e565b91506114788261196a565b602082019050919050565b6000611490600c8361173e565b915061149b82611993565b602082019050919050565b60006114b3601b8361173e565b91506114be826119bc565b602082019050919050565b60006114d6601c8361173e565b91506114e1826119e5565b602082019050919050565b6114f581611793565b82525050565b60006020820190506115106000830184611316565b92915050565b600060208201905061152b6000830184611307565b92915050565b600060408201905061154660008301856112f8565b61155360208301846112f8565b9392505050565b6000602082019050818103600083015261157381611325565b9050919050565b6000602082019050818103600083015261159381611348565b9050919050565b600060208201905081810360008301526115b38161136b565b9050919050565b600060208201905081810360008301526115d38161138e565b9050919050565b600060208201905081810360008301526115f3816113b1565b9050919050565b60006020820190508181036000830152611613816113d4565b9050919050565b60006020820190508181036000830152611633816113f7565b9050919050565b600060208201905081810360008301526116538161141a565b9050919050565b600060208201905081810360008301526116738161143d565b9050919050565b6000602082019050818103600083015261169381611460565b9050919050565b600060208201905081810360008301526116b381611483565b9050919050565b600060208201905081810360008301526116d3816114a6565b9050919050565b600060208201905081810360008301526116f3816114c9565b9050919050565b600060208201905061170f60008301846114ec565b92915050565b600060408201905061172a60008301856114ec565b61173760208301846114ec565b9392505050565b600082825260208201905092915050565b600061175a82611773565b9050919050565b600061176c82611773565b9050919050565b600073ffffffffffffffffffffffffffffffffffffffff82169050919050565b6000819050919050565b60006117a8826117af565b9050919050565b60006117ba826117c1565b9050919050565b60006117cc82611773565b9050919050565b7f6d61782061756374696f6e206c656e67746820746f6f20686967680000000000600082015250565b7f6d696e207265736572766520666163746f7220746f6f20686967680000000000600082015250565b7f4f776e61626c653a206e6577206f776e657220697320746865207a65726f206160008201527f6464726573730000000000000000000000000000000000000000000000000000602082015250565b7f6d696e2062696420696e63726561736520746f6f206c6f770000000000000000600082015250565b7f6d696e2062696420696e63726561736520746f6f206869676800000000000000600082015250565b7f6d61782061756374696f6e206c656e67746820746f6f206c6f77000000000000600082015250565b7f6d6178207265736572766520666163746f7220746f6f206c6f77000000000000600082015250565b7f4f776e61626c653a2063616c6c6572206973206e6f7420746865206f776e6572600082015250565b7f6d696e2061756374696f6e206c656e67746820746f6f206c6f77000000000000600082015250565b7f6d696e2061756374696f6e206c656e67746820746f6f20686967680000000000600082015250565b7f66656520746f6f20686967680000000000000000000000000000000000000000600082015250565b7f666565732063616e6e6f7420676f20746f203020616464726573730000000000600082015250565b7f6d696e20766f74652070657263656e7461676520746f6f206869676800000000600082015250565b611a178161174f565b8114611a2257600080fd5b50565b611a2e81611761565b8114611a3957600080fd5b50565b611a4581611793565b8114611a5057600080fd5b5056fea2646970667358221220d6c840accd3c98848a81a944c2c543da265d1208c1194faebbd28949e120ba8e64736f6c63430008040033",
  "linkReferences": {},
  "deployedLinkReferences": {}
}