{
  "_format": "hh-sol-artifact-1",
  "contractName": "MinterFilterV0",
  "sourceName": "third_party/artblocks/contracts/MinterFilterV0.sol",
  "abi": [
    {
      "inputs": [
        {
          "internalType": "address",
          "name": "_genArt721Address",
          "type": "address"
        }
      ],
      "stateMutability": "nonpayable",
      "type": "constructor"
    },
    {
      "anonymous": false,
      "inputs": [
        {
          "indexed": true,
          "internalType": "address",
          "name": "_coreContractAddress",
          "type": "address"
        }
      ],
      "name": "IsCanonicalMinterFilter",
      "type": "event"
    },
    {
      "anonymous": false,
      "inputs": [
        {
          "indexed": true,
          "internalType": "address",
          "name": "_minterAddress",
          "type": "address"
        },
        {
          "indexed": false,
          "internalType": "string",
          "name": "_minterType",
          "type": "string"
        }
      ],
      "name": "MinterApproved",
      "type": "event"
    },
    {
      "anonymous": false,
      "inputs": [
        {
          "indexed": true,
          "internalType": "address",
          "name": "_minterAddress",
          "type": "address"
        }
      ],
      "name": "MinterRevoked",
      "type": "event"
    },
    {
      "anonymous": false,
      "inputs": [
        {
          "indexed": true,
          "internalType": "uint256",
          "name": "_projectId",
          "type": "uint256"
        },
        {
          "indexed": true,
          "internalType": "address",
          "name": "_minterAddress",
          "type": "address"
        },
        {
          "indexed": false,
          "internalType": "string",
          "name": "_minterType",
          "type": "string"
        }
      ],
      "name": "ProjectMinterRegistered",
      "type": "event"
    },
    {
      "anonymous": false,
      "inputs": [
        {
          "indexed": true,
          "internalType": "uint256",
          "name": "_projectId",
          "type": "uint256"
        }
      ],
      "name": "ProjectMinterRemoved",
      "type": "event"
    },
    {
      "inputs": [
        {
          "internalType": "address",
          "name": "_minterAddress",
          "type": "address"
        }
      ],
      "name": "addApprovedMinter",
      "outputs": [],
      "stateMutability": "nonpayable",
      "type": "function"
    },
    {
      "inputs": [],
      "name": "alertAsCanonicalMinterFilter",
      "outputs": [],
      "stateMutability": "nonpayable",
      "type": "function"
    },
    {
      "inputs": [],
      "name": "genArt721CoreAddress",
      "outputs": [
        {
          "internalType": "address",
          "name": "",
          "type": "address"
        }
      ],
      "stateMutability": "view",
      "type": "function"
    },
    {
      "inputs": [
        {
          "internalType": "uint256",
          "name": "_projectId",
          "type": "uint256"
        }
      ],
      "name": "getMinterForProject",
      "outputs": [
        {
          "internalType": "address",
          "name": "",
          "type": "address"
        }
      ],
      "stateMutability": "view",
      "type": "function"
    },
    {
      "inputs": [],
      "name": "getNumProjectsWithMinters",
      "outputs": [
        {
          "internalType": "uint256",
          "name": "",
          "type": "uint256"
        }
      ],
      "stateMutability": "view",
      "type": "function"
    },
    {
      "inputs": [
        {
          "internalType": "uint256",
          "name": "_index",
          "type": "uint256"
        }
      ],
      "name": "getProjectAndMinterInfoAt",
      "outputs": [
        {
          "internalType": "uint256",
          "name": "projectId",
          "type": "uint256"
        },
        {
          "internalType": "address",
          "name": "minterAddress",
          "type": "address"
        },
        {
          "internalType": "string",
          "name": "minterType",
          "type": "string"
        }
      ],
      "stateMutability": "view",
      "type": "function"
    },
    {
      "inputs": [
        {
          "internalType": "address",
          "name": "",
          "type": "address"
        }
      ],
      "name": "isApprovedMinter",
      "outputs": [
        {
          "internalType": "bool",
          "name": "",
          "type": "bool"
        }
      ],
      "stateMutability": "view",
      "type": "function"
    },
    {
      "inputs": [
        {
          "internalType": "address",
          "name": "_to",
          "type": "address"
        },
        {
          "internalType": "uint256",
          "name": "_projectId",
          "type": "uint256"
        },
        {
          "internalType": "address",
          "name": "sender",
          "type": "address"
        }
      ],
      "name": "mint",
      "outputs": [
        {
          "internalType": "uint256",
          "name": "_tokenId",
          "type": "uint256"
        }
      ],
      "stateMutability": "nonpayable",
      "type": "function"
    },
    {
      "inputs": [
        {
          "internalType": "address",
          "name": "",
          "type": "address"
        }
      ],
      "name": "numProjectsUsingMinter",
      "outputs": [
        {
          "internalType": "uint256",
          "name": "",
          "type": "uint256"
        }
      ],
      "stateMutability": "view",
      "type": "function"
    },
    {
      "inputs": [
        {
          "internalType": "uint256",
          "name": "_projectId",
          "type": "uint256"
        }
      ],
      "name": "projectHasMinter",
      "outputs": [
        {
          "internalType": "bool",
          "name": "",
          "type": "bool"
        }
      ],
      "stateMutability": "view",
      "type": "function"
    },
    {
      "inputs": [
        {
          "internalType": "address",
          "name": "_minterAddress",
          "type": "address"
        }
      ],
      "name": "removeApprovedMinter",
      "outputs": [],
      "stateMutability": "nonpayable",
      "type": "function"
    },
    {
      "inputs": [
        {
          "internalType": "uint256",
          "name": "_projectId",
          "type": "uint256"
        }
      ],
      "name": "removeMinterForProject",
      "outputs": [],
      "stateMutability": "nonpayable",
      "type": "function"
    },
    {
      "inputs": [
        {
          "internalType": "uint256[]",
          "name": "_projectIds",
          "type": "uint256[]"
        }
      ],
      "name": "removeMintersForProjects",
      "outputs": [],
      "stateMutability": "nonpayable",
      "type": "function"
    },
    {
      "inputs": [
        {
          "internalType": "uint256",
          "name": "_projectId",
          "type": "uint256"
        },
        {
          "internalType": "address",
          "name": "_minterAddress",
          "type": "address"
        }
      ],
      "name": "setMinterForProject",
      "outputs": [],
      "stateMutability": "nonpayable",
      "type": "function"
    }
  ],
  "bytecode": "0x60c060405234801561001057600080fd5b5060405161198c38038061198c83398101604081905261002f91610045565b6001600160a01b0316608081905260a052610075565b60006020828403121561005757600080fd5b81516001600160a01b038116811461006e57600080fd5b9392505050565b60805160a0516118a56100e76000396000818161031b015281816103c8015281816104bc015281816105f501528181610717015281816107b50152818161092001528181610b8b01528181610c2901528181610d9f0152610fc8015260008181610175015261059701526118a56000f3fe608060405234801561001057600080fd5b50600436106100ea5760003560e01c8063b34c5c841161008c578063c47d50f511610066578063c47d50f514610205578063e7300db914610218578063faf0d7451461023a578063ff2505f01461024d57600080fd5b8063b34c5c84146101cc578063bcc0fdf1146101df578063bee4d106146101f257600080fd5b806371828422116100c8578063718284221461016857806392a10f831461017057806393cb6ef0146101af578063a409177e146101b957600080fd5b80630d4d1513146100ef57806326df17b5146101155780633a3d146f14610135575b600080fd5b6101026100fd366004611519565b610260565b6040519081526020015b60405180910390f35b61010261012336600461155b565b60036020526000908152604090205481565b61015861014336600461155b565b60046020526000908152604090205460ff1681565b604051901515815260200161010c565b6101026103a2565b6101977f000000000000000000000000000000000000000000000000000000000000000081565b6040516001600160a01b03909116815260200161010c565b6101b76103b3565b005b6101b76101c7366004611578565b6105e0565b6101b76101da3660046115ed565b610700565b6101976101ed3660046115ed565b6108a5565b6101b761020036600461155b565b61090b565b6101586102133660046115ed565b610acb565b61022b6102263660046115ed565b610ae0565b60405161010c9392919061165e565b6101b7610248366004611686565b610b74565b6101b761025b36600461155b565b610fb3565b600061026c818461113d565b6001600160a01b0316336001600160a01b0316146102d15760405162461bcd60e51b815260206004820152601460248201527f4f6e6c792061737369676e6564206d696e74657200000000000000000000000060448201526064015b60405180910390fd5b6040517f0d4d15130000000000000000000000000000000000000000000000000000000081526001600160a01b0385811660048301526024820185905283811660448301526000917f000000000000000000000000000000000000000000000000000000000000000090911690630d4d151390606401602060405180830381600087803b15801561036157600080fd5b505af1158015610375573d6000803e3d6000fd5b505050506040513d601f19601f8201168201806040525081019061039991906116b6565b95945050505050565b60006103ae6000611152565b905090565b604051633af32abf60e01b81523360048201527f00000000000000000000000000000000000000000000000000000000000000006001600160a01b031690633af32abf9060240160206040518083038186803b15801561041257600080fd5b505afa158015610426573d6000803e3d6000fd5b505050506040513d601f19601f8201168201806040525081019061044a91906116cf565b61048e5760405162461bcd60e51b815260206004820152601560248201527413db9b1e4810dbdc99481dda1a5d195b1a5cdd1959605a1b60448201526064016102c8565b6040517fad0305ce0000000000000000000000000000000000000000000000000000000081523060048201527f00000000000000000000000000000000000000000000000000000000000000006001600160a01b03169063ad0305ce9060240160206040518083038186803b15801561050657600080fd5b505afa15801561051a573d6000803e3d6000fd5b505050506040513d601f19601f8201168201806040525081019061053e91906116cf565b61058a5760405162461bcd60e51b815260206004820152601560248201527f4f6e6c79206d696e7420616c6c6f776c6973746564000000000000000000000060448201526064016102c8565b6040516001600160a01b037f000000000000000000000000000000000000000000000000000000000000000016907f93962c490513b829a454280256dc873e04e932b196e23a5d5099b88a2a1cab0190600090a2565b604051633af32abf60e01b81523360048201527f00000000000000000000000000000000000000000000000000000000000000006001600160a01b031690633af32abf9060240160206040518083038186803b15801561063f57600080fd5b505afa158015610653573d6000803e3d6000fd5b505050506040513d601f19601f8201168201806040525081019061067791906116cf565b6106bb5760405162461bcd60e51b815260206004820152601560248201527413db9b1e4810dbdc99481dda1a5d195b1a5cdd1959605a1b60448201526064016102c8565b8060005b818110156106fa576106e88484838181106106dc576106dc6116f1565b9050602002013561115d565b806106f28161171d565b9150506106bf565b50505050565b604051633af32abf60e01b815233600482015281907f00000000000000000000000000000000000000000000000000000000000000006001600160a01b031690633af32abf9060240160206040518083038186803b15801561076157600080fd5b505afa158015610775573d6000803e3d6000fd5b505050506040513d601f19601f8201168201806040525081019061079991906116cf565b8061084c575060405163a47d29cb60e01b8152600481018290527f00000000000000000000000000000000000000000000000000000000000000006001600160a01b03169063a47d29cb9060240160206040518083038186803b1580156107ff57600080fd5b505afa158015610813573d6000803e3d6000fd5b505050506040513d601f19601f820116820180604052508101906108379190611738565b6001600160a01b0316336001600160a01b0316145b6108985760405162461bcd60e51b815260206004820152601f60248201527f4f6e6c7920436f72652077686974656c6973746564206f72204172746973740060448201526064016102c8565b6108a18261115d565b5050565b600080806108b381856111d2565b91509150816109045760405162461bcd60e51b815260206004820152601260248201527f4e6f206d696e7465722061737369676e6564000000000000000000000000000060448201526064016102c8565b9392505050565b604051633af32abf60e01b81523360048201527f00000000000000000000000000000000000000000000000000000000000000006001600160a01b031690633af32abf9060240160206040518083038186803b15801561096a57600080fd5b505afa15801561097e573d6000803e3d6000fd5b505050506040513d601f19601f820116820180604052508101906109a291906116cf565b6109e65760405162461bcd60e51b815260206004820152601560248201527413db9b1e4810dbdc99481dda1a5d195b1a5cdd1959605a1b60448201526064016102c8565b6001600160a01b0381166000818152600460208190526040808320805460ff1916600117905580517fe9d1e8ac00000000000000000000000000000000000000000000000000000000815290517f1ac09d1079d96f19b763467642c3c3b4e36b56222414f4a4a50f26c7011147bb93859363e9d1e8ac93808201939190829003018186803b158015610a7757600080fd5b505afa158015610a8b573d6000803e3d6000fd5b505050506040513d6000823e601f3d908101601f19168201604052610ab3919081019061176b565b604051610ac09190611818565b60405180910390a250565b600080610ad881846111d2565b509392505050565b6000806060610aef82856111f0565b8093508194505050816001600160a01b031663e9d1e8ac6040518163ffffffff1660e01b815260040160006040518083038186803b158015610b3057600080fd5b505afa158015610b44573d6000803e3d6000fd5b505050506040513d6000823e601f3d908101601f19168201604052610b6c919081019061176b565b929491935050565b604051633af32abf60e01b815233600482015282907f00000000000000000000000000000000000000000000000000000000000000006001600160a01b031690633af32abf9060240160206040518083038186803b158015610bd557600080fd5b505afa158015610be9573d6000803e3d6000fd5b505050506040513d601f19601f82011682018060405250810190610c0d91906116cf565b80610cc0575060405163a47d29cb60e01b8152600481018290527f00000000000000000000000000000000000000000000000000000000000000006001600160a01b03169063a47d29cb9060240160206040518083038186803b158015610c7357600080fd5b505afa158015610c87573d6000803e3d6000fd5b505050506040513d601f19601f82011682018060405250810190610cab9190611738565b6001600160a01b0316336001600160a01b0316145b610d0c5760405162461bcd60e51b815260206004820152601f60248201527f4f6e6c7920436f72652077686974656c6973746564206f72204172746973740060448201526064016102c8565b6001600160a01b038216600090815260046020526040902054829060ff16610d9c5760405162461bcd60e51b815260206004820152602160248201527f4f6e6c7920617070726f766564206d696e746572732061726520616c6c6f776560448201527f640000000000000000000000000000000000000000000000000000000000000060648201526084016102c8565b837f00000000000000000000000000000000000000000000000000000000000000006001600160a01b031663e935b7b16040518163ffffffff1660e01b815260040160206040518083038186803b158015610df657600080fd5b505afa158015610e0a573d6000803e3d6000fd5b505050506040513d601f19601f82011682018060405250810190610e2e91906116b6565b8110610e7c5760405162461bcd60e51b815260206004820152601660248201527f4f6e6c79206578697374696e672070726f6a656374730000000000000000000060448201526064016102c8565b600080610e8981886111d2565b915091508115610ebd576001600160a01b0381166000908152600360205260408120805491610eb78361182b565b91905055505b6001600160a01b0386166000908152600360205260408120805491610ee18361171d565b90915550610ef39050600088886111ff565b50856001600160a01b0316877f21fd9bfc68d8bc4b740ebf996aa9c255d1e6bb474f81dc2ad577d5d3c5a5e1e0886001600160a01b031663e9d1e8ac6040518163ffffffff1660e01b815260040160006040518083038186803b158015610f5957600080fd5b505afa158015610f6d573d6000803e3d6000fd5b505050506040513d6000823e601f3d908101601f19168201604052610f95919081019061176b565b604051610fa29190611818565b60405180910390a350505050505050565b604051633af32abf60e01b81523360048201527f00000000000000000000000000000000000000000000000000000000000000006001600160a01b031690633af32abf9060240160206040518083038186803b15801561101257600080fd5b505afa158015611026573d6000803e3d6000fd5b505050506040513d601f19601f8201168201806040525081019061104a91906116cf565b61108e5760405162461bcd60e51b815260206004820152601560248201527413db9b1e4810dbdc99481dda1a5d195b1a5cdd1959605a1b60448201526064016102c8565b6001600160a01b038116600090815260036020526040902054156110f45760405162461bcd60e51b815260206004820152601360248201527f4f6e6c7920756e75736564206d696e746572730000000000000000000000000060448201526064016102c8565b6001600160a01b038116600081815260046020526040808220805460ff19169055517f44f4322f8daa225d5f4877ad0f7d3dfba248a774396f3ca99405ed40a044fe819190a250565b6000611149838361121d565b90505b92915050565b600061114c8261128d565b6003600061116b818461113d565b6001600160a01b03168152602081019190915260400160009081208054916111928361182b565b909155506111a39050600082611298565b5060405181907f15267d34078ead35bc0303f6cdd08f99b837bdfcd7fab97fca4c58f3d85d760590600090a250565b60008080806111e186866112a4565b909450925050505b9250929050565b60008080806111e186866112de565b600061121584846001600160a01b038516611309565b949350505050565b60008181526002830160205260408120548015158061124157506112418484611326565b6111495760405162461bcd60e51b815260206004820152601e60248201527f456e756d657261626c654d61703a206e6f6e6578697374656e74206b6579000060448201526064016102c8565b600061114c82611332565b6000611149838361133c565b60008181526002830160205260408120548190806112d3576112c68585611326565b9250600091506111e99050565b6001925090506111e9565b600080806112ec8585611359565b600081815260029690960160205260409095205494959350505050565b600082815260028401602052604081208290556112158484611365565b60006111498383611371565b600061114c825490565b600081815260028301602052604081208190556111498383611389565b60006111498383611395565b600061114983836113bf565b60008181526001830160205260408120541515611149565b6000611149838361140e565b60008260000182815481106113ac576113ac6116f1565b9060005260206000200154905092915050565b60008181526001830160205260408120546114065750815460018181018455600084815260208082209093018490558454848252828601909352604090209190915561114c565b50600061114c565b600081815260018301602052604081205480156114f7576000611432600183611842565b855490915060009061144690600190611842565b90508181146114ab576000866000018281548110611466576114666116f1565b9060005260206000200154905080876000018481548110611489576114896116f1565b6000918252602080832090910192909255918252600188019052604090208390555b85548690806114bc576114bc611859565b60019003818190600052602060002001600090559055856001016000868152602001908152602001600020600090556001935050505061114c565b600091505061114c565b6001600160a01b038116811461151657600080fd5b50565b60008060006060848603121561152e57600080fd5b833561153981611501565b925060208401359150604084013561155081611501565b809150509250925092565b60006020828403121561156d57600080fd5b813561114981611501565b6000806020838503121561158b57600080fd5b823567ffffffffffffffff808211156115a357600080fd5b818501915085601f8301126115b757600080fd5b8135818111156115c657600080fd5b8660208260051b85010111156115db57600080fd5b60209290920196919550909350505050565b6000602082840312156115ff57600080fd5b5035919050565b60005b83811015611621578181015183820152602001611609565b838111156106fa5750506000910152565b6000815180845261164a816020860160208601611606565b601f01601f19169290920160200192915050565b8381526001600160a01b03831660208201526060604082015260006103996060830184611632565b6000806040838503121561169957600080fd5b8235915060208301356116ab81611501565b809150509250929050565b6000602082840312156116c857600080fd5b5051919050565b6000602082840312156116e157600080fd5b8151801515811461114957600080fd5b634e487b7160e01b600052603260045260246000fd5b634e487b7160e01b600052601160045260246000fd5b600060001982141561173157611731611707565b5060010190565b60006020828403121561174a57600080fd5b815161114981611501565b634e487b7160e01b600052604160045260246000fd5b60006020828403121561177d57600080fd5b815167ffffffffffffffff8082111561179557600080fd5b818401915084601f8301126117a957600080fd5b8151818111156117bb576117bb611755565b604051601f8201601f19908116603f011681019083821181831017156117e3576117e3611755565b816040528281528760208487010111156117fc57600080fd5b61180d836020830160208801611606565b979650505050505050565b6020815260006111496020830184611632565b60008161183a5761183a611707565b506000190190565b60008282101561185457611854611707565b500390565b634e487b7160e01b600052603160045260246000fdfea2646970667358221220a1333a9e63a70374ea88c1b1e2caabffe0f1e816eda575fdea545615f7617bdc64736f6c63430008090033",
  "linkReferences": {},
  "deployedLinkReferences": {}
}